:020000040000FA
:040000000DEF00F010
:040008000FEF00F006
:10001800FF00F7EF00F03A0167AB0AD0679B0B0EC1
:10002800016E000E026E010E036EE8EC00F0110086
:1000380067AF0AD0679F0B0E016E000E026E020EAC
:10004800036EE8EC00F0110057A30AD057930B0E8B
:10005800016E000E026E030E036EE8EC00F0110054
:1000680057A70AD057970B0E016E000E026E040EAA
:10007800036EE8EC00F0110057AB0AD0579B0B0E4B
:10008800016E000E026E050E036EE8EC00F0110022
:1000980067A70AD067970B0E016E000E026E060E58
:1000A800036EE8EC00F0110067A30AD067930B0E0B
:1000B800016E000E026E070E036EE8EC00F01100F0
:1000C80067A10AD067910B0E016E000E026E080E32
:1000D800036EE8EC00F0110067A50AD067950B0ED7
:1000E800016E000E026E090E036EE8EC00F01100BE
:1000F80057A90AD057990B0E016E000E026E0A0E10
:10010800036EE8EC00F0110057A50AD057950B0EC6
:10011800016E000E026E0B0E036EE8EC00F011008B
:1001280057A10AD057910B0E016E000E026E0C0EED
:10013800036EE8EC00F0110067AD0AD0679D0B0E66
:10014800016E000E026E0D0E036EE8EC00F0110059
:1001580067A9110067990B0E016E000E026E0E0E54
:10016800036EE8EC00F011003901908FD8EC00F034
:10017800D28E000E0B6EBA98020E0A6E450E096EEC
:10018800AA0EE82EFED7092EFCD70A2EFAD7BA886F
:10019800020E0A6E450E096EAA0EE82EFED7092E2B
:1001A800FCD70A2EFAD7E7D7000EC26EC368C46818
:1001B8003A0156696669000E506F000E606F000EB6
:1001C800676F000E576F1200BABA02D0BA8A01D010
:1001D800BA9A600007F0D9FF60000BF0DAFF600000
:1001E8000FF0DFFF12000B6A080ED56E000ED66EF8
:0A01F800000ED76E0001B8EF00F012
:020000040020DA
:10000000FF0FFF0FFF0FFF0FFF0FFF0FFF0FFF0F80
:020000040030CA
:0A000000ECFFF7FF9FFFFFFFFFFF7B
:00000001FF
